{
  "abi": [
    {
      "inputs": [],
      "stateMutability": "nonpayable",
      "type": "constructor"
    },
    {
      "inputs": [
        {
          "internalType": "address",
          "name": "conduit",
          "type": "address"
        }
      ],
      "name": "CallerIsNotNewPotentialOwner",
      "type": "error"
    },
    {
      "inputs": [
        {
          "internalType": "address",
          "name": "conduit",
          "type": "address"
        }
      ],
      "name": "CallerIsNotOwner",
      "type": "error"
    },
    {
      "inputs": [
        {
          "internalType": "address",
          "name": "conduit",
          "type": "address"
        }
      ],
      "name": "ChannelOutOfRange",
      "type": "error"
    },
    {
      "inputs": [
        {
          "internalType": "address",
          "name": "conduit",
          "type": "address"
        }
      ],
      "name": "ConduitAlreadyExists",
      "type": "error"
    },
    {
      "inputs": [],
      "name": "InvalidCreator",
      "type": "error"
    },
    {
      "inputs": [],
      "name": "InvalidInitialOwner",
      "type": "error"
    },
    {
      "inputs": [
        {
          "internalType": "address",
          "name": "conduit",
          "type": "address"
        },
        {
          "internalType": "address",
          "name": "newPotentialOwner",
          "type": "address"
        }
      ],
      "name": "NewPotentialOwnerAlreadySet",
      "type": "error"
    },
    {
      "inputs": [
        {
          "internalType": "address",
          "name": "conduit",
          "type": "address"
        }
      ],
      "name": "NewPotentialOwnerIsZeroAddress",
      "type": "error"
    },
    {
      "inputs": [],
      "name": "NoConduit",
      "type": "error"
    },
    {
      "inputs": [
        {
          "internalType": "address",
          "name": "conduit",
          "type": "address"
        }
      ],
      "name": "NoPotentialOwnerCurrentlySet",
      "type": "error"
    },
    {
      "anonymous": false,
      "inputs": [
        {
          "indexed": false,
          "internalType": "address",
          "name": "conduit",
          "type": "address"
        },
        {
          "indexed": false,
          "internalType": "bytes32",
          "name": "conduitKey",
          "type": "bytes32"
        }
      ],
      "name": "NewConduit",
      "type": "event"
    },
    {
      "anonymous": false,
      "inputs": [
        {
          "indexed": true,
          "internalType": "address",
          "name": "conduit",
          "type": "address"
        },
        {
          "indexed": true,
          "internalType": "address",
          "name": "previousOwner",
          "type": "address"
        },
        {
          "indexed": true,
          "internalType": "address",
          "name": "newOwner",
          "type": "address"
        }
      ],
      "name": "OwnershipTransferred",
      "type": "event"
    },
    {
      "anonymous": false,
      "inputs": [
        {
          "indexed": true,
          "internalType": "address",
          "name": "newPotentialOwner",
          "type": "address"
        }
      ],
      "name": "PotentialOwnerUpdated",
      "type": "event"
    },
    {
      "inputs": [
        {
          "internalType": "address",
          "name": "conduit",
          "type": "address"
        }
      ],
      "name": "acceptOwnership",
      "outputs": [],
      "stateMutability": "nonpayable",
      "type": "function"
    },
    {
      "inputs": [
        {
          "internalType": "address",
          "name": "conduit",
          "type": "address"
        }
      ],
      "name": "cancelOwnershipTransfer",
      "outputs": [],
      "stateMutability": "nonpayable",
      "type": "function"
    },
    {
      "inputs": [
        {
          "internalType": "bytes32",
          "name": "conduitKey",
          "type": "bytes32"
        },
        {
          "internalType": "address",
          "name": "initialOwner",
          "type": "address"
        }
      ],
      "name": "createConduit",
      "outputs": [
        {
          "internalType": "address",
          "name": "conduit",
          "type": "address"
        }
      ],
      "stateMutability": "nonpayable",
      "type": "function"
    },
    {
      "inputs": [
        {
          "internalType": "address",
          "name": "conduit",
          "type": "address"
        },
        {
          "internalType": "uint256",
          "name": "channelIndex",
          "type": "uint256"
        }
      ],
      "name": "getChannel",
      "outputs": [
        {
          "internalType": "address",
          "name": "channel",
          "type": "address"
        }
      ],
      "stateMutability": "view",
      "type": "function"
    },
    {
      "inputs": [
        {
          "internalType": "address",
          "name": "conduit",
          "type": "address"
        },
        {
          "internalType": "address",
          "name": "channel",
          "type": "address"
        }
      ],
      "name": "getChannelStatus",
      "outputs": [
        {
          "internalType": "bool",
          "name": "isOpen",
          "type": "bool"
        }
      ],
      "stateMutability": "view",
      "type": "function"
    },
    {
      "inputs": [
        {
          "internalType": "address",
          "name": "conduit",
          "type": "address"
        }
      ],
      "name": "getChannels",
      "outputs": [
        {
          "internalType": "address[]",
          "name": "channels",
          "type": "address[]"
        }
      ],
      "stateMutability": "view",
      "type": "function"
    },
    {
      "inputs": [
        {
          "internalType": "bytes32",
          "name": "conduitKey",
          "type": "bytes32"
        }
      ],
      "name": "getConduit",
      "outputs": [
        {
          "internalType": "address",
          "name": "conduit",
          "type": "address"
        },
        {
          "internalType": "bool",
          "name": "exists",
          "type": "bool"
        }
      ],
      "stateMutability": "view",
      "type": "function"
    },
    {
      "inputs": [],
      "name": "getConduitCodeHashes",
      "outputs": [
        {
          "internalType": "bytes32",
          "name": "creationCodeHash",
          "type": "bytes32"
        },
        {
          "internalType": "bytes32",
          "name": "runtimeCodeHash",
          "type": "bytes32"
        }
      ],
      "stateMutability": "view",
      "type": "function"
    },
    {
      "inputs": [
        {
          "internalType": "address",
          "name": "conduit",
          "type": "address"
        }
      ],
      "name": "getKey",
      "outputs": [
        {
          "internalType": "bytes32",
          "name": "conduitKey",
          "type": "bytes32"
        }
      ],
      "stateMutability": "view",
      "type": "function"
    },
    {
      "inputs": [
        {
          "internalType": "address",
          "name": "conduit",
          "type": "address"
        }
      ],
      "name": "getPotentialOwner",
      "outputs": [
        {
          "internalType": "address",
          "name": "potentialOwner",
          "type": "address"
        }
      ],
      "stateMutability": "view",
      "type": "function"
    },
    {
      "inputs": [
        {
          "internalType": "address",
          "name": "conduit",
          "type": "address"
        }
      ],
      "name": "getTotalChannels",
      "outputs": [
        {
          "internalType": "uint256",
          "name": "totalChannels",
          "type": "uint256"
        }
      ],
      "stateMutability": "view",
      "type": "function"
    },
    {
      "inputs": [
        {
          "internalType": "address",
          "name": "conduit",
          "type": "address"
        }
      ],
      "name": "ownerOf",
      "outputs": [
        {
          "internalType": "address",
          "name": "owner",
          "type": "address"
        }
      ],
      "stateMutability": "view",
      "type": "function"
    },
    {
      "inputs": [
        {
          "internalType": "address",
          "name": "conduit",
          "type": "address"
        },
        {
          "internalType": "address",
          "name": "newPotentialOwner",
          "type": "address"
        }
      ],
      "name": "transferOwnership",
      "outputs": [],
      "stateMutability": "nonpayable",
      "type": "function"
    },
    {
      "inputs": [
        {
          "internalType": "address",
          "name": "conduit",
          "type": "address"
        },
        {
          "internalType": "address",
          "name": "channel",
          "type": "address"
        },
        {
          "internalType": "bool",
          "name": "isOpen",
          "type": "bool"
        }
      ],
      "name": "updateChannel",
      "outputs": [],
      "stateMutability": "nonpayable",
      "type": "function"
    }
  ],
  "bytecode": {
    "object": "0x60c0346100d057610bd6906001600160401b0390603f8301601f19168101828111828210176100ba57604052828152611e169060208101908483833951902060805260405191838301908111838210176100ba5760009383928339039082f580156100ae576001600160a01b03163f60a052604051611d4090816100d68239608051818181610461015281816106f20152610e86015260a0518181816104c40152818161075d0152610ea90152f35b6040513d6000823e3d90fd5b634e487b7160e01b600052604160045260246000fd5b600080fdfe6040608081526004908136101561001557600080fd5b6000803560e01c8063027cc76414610ecf5780630a96ad3914610e5257806313ad9cab14610b3957806314afd79e14610afa57806333bc857214610a765780634e3f958014610a0957806351710e45146108cc5780636d435421146107875780636e9bfd9f14610661578063794593bc146103a15780637b37e561146102a75780638b9e028b146101c2578063906c87cc1461014d576393790f44146100ba57600080fd5b3461014a5760207ffffffffffffffffffffffffffffffffffffffffffffffffffffffffffffffffc36011261014a57819073ffffffffffffffffffffffffffffffffffffffff610108610f97565b168152806020522054908115610122576020925051908152f35b9050517f4ca82090000000000000000000000000000000000000000000000000000000008152fd5b80fd5b5090346101be5760207ffffffffffffffffffffffffffffffffffffffffffffffffffffffffffffffffc3601126101be5760209160028261018c610f97565b9261019684611108565b73ffffffffffffffffffffffffffffffffffffffff8094168152808652200154169051908152f35b5080fd5b5090346101be576020807ffffffffffffffffffffffffffffffffffffffffffffffffffffffffffffffffc3601126102a3576101fc610f97565b9261020684611108565b73ffffffffffffffffffffffffffffffffffffffff809416815280825260038382200191835190818185549182815201908195855282852090855b81811061028d5750505082610257910383610fe2565b8451948186019282875251809352850193925b8281106102775785850386f35b835187168552938101939281019260010161026a565b82548a1684529284019260019283019201610241565b8280fd5b5091346102a35760207ffffffffffffffffffffffffffffffffffffffffffffffffffffffffffffffffc3601126102a3576102e0610f97565b906102ea82611099565b73ffffffffffffffffffffffffffffffffffffffff8092169182855284602052600284862001541615610373575090600291837f11a3cf439fb225bfe74225716b6774765670ec1060e3796802e62139d69974da8180a28352826020528220017fffffffffffffffffffffffff0000000000000000000000000000000000000000815416905580f35b9060249251917f6b013616000000000000000000000000000000000000000000000000000000008352820152fd5b5082346101be57827ffffffffffffffffffffffffffffffffffffffffffffffffffffffffffffffffc3601126101be5773ffffffffffffffffffffffffffffffffffffffff8135816103f1610fbf565b1691821561063957338260601c036106115785517fff00000000000000000000000000000000000000000000000000000000000000602082019081523060601b7fffffffffffffffffffffffffffffffffffffffff000000000000000000000000166021830152603582018490527f00000000000000000000000000000000000000000000000000000000000000006055830152906104bb81607581015b037fffffffffffffffffffffffffffffffffffffffffffffffffffffffffffffffe08101835282610fe2565b5190201692833f7f0000000000000000000000000000000000000000000000000000000000000000146105e257855190610bd68083019183831067ffffffffffffffff8411176105b65750918091849361115e8339039086f5156105ac57937f4397af6128d529b8ae0442f99db1296d5136062597a15bbc61c1b2a6431a7d15816020968587528688528082882060018101877fffffffffffffffffffffffff00000000000000000000000000000000000000008254161790555581519086825288820152a15192827fc8894f26f396ce8c004245c8b7cd1b92103a6e4302fcbab883987149ac01b7ec8280a48152f35b84513d85823e3d90fd5b8760416024927f4e487b7100000000000000000000000000000000000000000000000000000000835252fd5b602490848751917f6328ccb2000000000000000000000000000000000000000000000000000000008352820152fd5b8386517fcb6e5344000000000000000000000000000000000000000000000000000000008152fd5b8386517f99faaa04000000000000000000000000000000000000000000000000000000008152fd5b5082903461014a5760207ffffffffffffffffffffffffffffffffffffffffffffffffffffffffffffffffc36011261014a575081517fff00000000000000000000000000000000000000000000000000000000000000602082019081523060601b7fffffffffffffffffffffffffffffffffffffffff000000000000000000000000166021830152913560358201527f0000000000000000000000000000000000000000000000000000000000000000605582015273ffffffffffffffffffffffffffffffffffffffff919061073a816075810161048f565b5190209151911673ffffffffffffffffffffffffffffffffffffffff811682523f7f0000000000000000000000000000000000000000000000000000000000000000146020820152604090f35b509190346102a357807ffffffffffffffffffffffffffffffffffffffffffffffffffffffffffffffffc3601126102a3576107c0610f97565b916107c9610fbf565b906107d384611099565b73ffffffffffffffffffffffffffffffffffffffff80921693841561089c578216918286528560205260028487200154168414610868575090600291837f11a3cf439fb225bfe74225716b6774765670ec1060e3796802e62139d69974da8680a2845283602052832001907fffffffffffffffffffffffff000000000000000000000000000000000000000082541617905580f35b836044928451927fcbc080ca0000000000000000000000000000000000000000000000000000000084528301526024820152fd5b9160249351927fa388d2630000000000000000000000000000000000000000000000000000000084521690820152fd5b5082346101be5760207ffffffffffffffffffffffffffffffffffffffffffffffffffffffffffffffffc3601126101be57610905610f97565b9261090f84611108565b73ffffffffffffffffffffffffffffffffffffffff809416918284528360205284600283862001541633036109db575060019084847f11a3cf439fb225bfe74225716b6774765670ec1060e3796802e62139d69974da8180a283855284602052600282862001937fffffffffffffffffffffffff000000000000000000000000000000000000000094858154169055339184848820015416907fc8894f26f396ce8c004245c8b7cd1b92103a6e4302fcbab883987149ac01b7ec8780a483200190339082541617905580f35b8260249251917f88c3a115000000000000000000000000000000000000000000000000000000008352820152fd5b5090346101be5760207ffffffffffffffffffffffffffffffffffffffffffffffffffffffffffffffffc3601126101be5760038160209373ffffffffffffffffffffffffffffffffffffffff610a5d610f97565b610a6681611108565b1681528085522001549051908152f35b5091346102a357817ffffffffffffffffffffffffffffffffffffffffffffffffffffffffffffffffc3601126102a35791602092610ab2610f97565b9083610abc610fbf565b93610ac684611108565b73ffffffffffffffffffffffffffffffffffffffff8094168152808752200191166000528252806000205415159051908152f35b5090346101be5760207ffffffffffffffffffffffffffffffffffffffffffffffffffffffffffffffffc3601126101be5760209160018261018c610f97565b509190346102a35760607ffffffffffffffffffffffffffffffffffffffffffffffffffffffffffffffffc3601126102a357610b73610f97565b91610b7c610fbf565b906044359182159485158403610e4e57610b9581611099565b73ffffffffffffffffffffffffffffffffffffffff809116803b15610e4a5785517fc4e8fcb500000000000000000000000000000000000000000000000000000000815273ffffffffffffffffffffffffffffffffffffffff84168582019081528615156020820152899082908190604001038183865af18015610e4057610df9575b50875286602052848720908382019481841697886000528660205287600020549182159080610df2575b15610cb9575050505060030191825490680100000000000000008210156105b6575090610c78826001610caa9401855584611052565b90919082549060031b9173ffffffffffffffffffffffffffffffffffffffff9283811b93849216901b16911916179055565b54926000526020526000205580f35b95999895929450909181610de9575b50610cd9575b505050505050905080f35b7fffffffffffffffffffffffffffffffffffffffffffffffffffffffffffffffff906003828201930192835490838201918211610dbd57908186928203610d86575b5050505081548015610d5a578798500191610d368383611052565b909182549160031b1b19169055556000526020526000205580388080808080610cce565b60248860318b7f4e487b7100000000000000000000000000000000000000000000000000000000835252fd5b610c7892610d97610da89388611052565b90549060031b1c1692839187611052565b60005285602052866000205538838180610d1b565b60248a60118d7f4e487b7100000000000000000000000000000000000000000000000000000000835252fd5b90501538610cc8565b5080610c42565b67ffffffffffffffff8199929911610e145786529638610c18565b6024826041877f4e487b7100000000000000000000000000000000000000000000000000000000835252fd5b87513d8b823e3d90fd5b8780fd5b8680fd5b503461014a57807ffffffffffffffffffffffffffffffffffffffffffffffffffffffffffffffffc36011261014a575080517f000000000000000000000000000000000000000000000000000000000000000081527f00000000000000000000000000000000000000000000000000000000000000006020820152f35b503461014a57817ffffffffffffffffffffffffffffffffffffffffffffffffffffffffffffffffc36011261014a57610f06610f97565b9060243593610f1483611108565b73ffffffffffffffffffffffffffffffffffffffff809316908183528260205260038584200154861015610f6957509360038483602097610f5a95528088522001611052565b90549060031b1c169051908152f35b6024918551917f6ceb340b000000000000000000000000000000000000000000000000000000008352820152fd5b6004359073ffffffffffffffffffffffffffffffffffffffff82168203610fba57565b600080fd5b6024359073ffffffffffffffffffffffffffffffffffffffff82168203610fba57565b90601f7fffffffffffffffffffffffffffffffffffffffffffffffffffffffffffffffe0910116810190811067ffffffffffffffff82111761102357604052565b7f4e487b7100000000000000000000000000000000000000000000000000000000600052604160045260246000fd5b805482101561106a5760005260206000200190600090565b7f4e487b7100000000000000000000000000000000000000000000000000000000600052603260045260246000fd5b6110a281611108565b73ffffffffffffffffffffffffffffffffffffffff809116908160005260006020526001604060002001541633036110d75750565b602490604051907fd4ed9a170000000000000000000000000000000000000000000000000000000082526004820152fd5b73ffffffffffffffffffffffffffffffffffffffff1660005260006020526040600020541561113357565b60046040517f4ca82090000000000000000000000000000000000000000000000000000000008152fdfe60a080604052346100235733608052610bad90816100298239608051816103c50152f35b600080fdfe60806040526004361015610013575b600080fd5b6000803560e01c9081634ce34aa21461006657508063899e104c1461005d5780638df25d92146100545763c4e8fcb51461004c57600080fd5b61000e610362565b5061000e61027f565b5061000e6101ab565b346101465760207ffffffffffffffffffffffffffffffffffffffffffffffffffffffffffffffffc3601126101465760043567ffffffffffffffff8111610142576100b5903690600401610149565b9133815280602052604081205415610116575b8281106100fa576040517f4ce34aa2000000000000000000000000000000000000000000000000000000008152602090f35b8061011061010b6001938686610532565b6105c4565b016100c8565b807f93daadf2000000000000000000000000000000000000000000000000000000006024925233600452fd5b5080fd5b80fd5b9181601f8401121561000e5782359167ffffffffffffffff831161000e5760208085019460c0850201011161000e57565b9181601f8401121561000e5782359167ffffffffffffffff831161000e576020808501948460051b01011161000e57565b503461000e5760407ffffffffffffffffffffffffffffffffffffffffffffffffffffffffffffffffc36011261000e5767ffffffffffffffff60043581811161000e576101fc903690600401610149565b9160243590811161000e5761021590369060040161017a565b919092600033815280602052604081205415610116575b8181106102685761023d8486610a1a565b6040517f899e104c000000000000000000000000000000000000000000000000000000008152602090f35b8061027961010b6001938587610532565b0161022c565b503461000e5760207ffffffffffffffffffffffffffffffffffffffffffffffffffffffffffffffffc36011261000e5760043567ffffffffffffffff811161000e576102cf90369060040161017a565b33600052600060205260406000205415610316576102ec91610a1a565b60206040517f8df25d92000000000000000000000000000000000000000000000000000000008152f35b7f93daadf2000000000000000000000000000000000000000000000000000000006000523360045260246000fd5b73ffffffffffffffffffffffffffffffffffffffff81160361000e57565b503461000e5760407ffffffffffffffffffffffffffffffffffffffffffffffffffffffffffffffffc36011261000e5760043561039e81610344565b6024359081151580830361000e5773ffffffffffffffffffffffffffffffffffffffff90817f00000000000000000000000000000000000000000000000000000000000000001633036105085761041f6104188473ffffffffffffffffffffffffffffffffffffffff166000526000602052604060002090565b5460ff1690565b1515146104b657816104a6846104767fae63067d43ac07563b7eb8db6595635fc77f1578a2a5ea06ba91b63e2afa37e29573ffffffffffffffffffffffffffffffffffffffff166000526000602052604060002090565b9060ff7fffffffffffffffffffffffffffffffffffffffffffffffffffffffffffffff0083541691151516179055565b60405193151584521691602090a2005b506040517f924e341e00000000000000000000000000000000000000000000000000000000815273ffffffffffffffffffffffffffffffffffffffff9190911660048201529015156024820152604490fd5b60046040517f6d5769be000000000000000000000000000000000000000000000000000000008152fd5b91908110156105425760c0020190565b7f4e487b7100000000000000000000000000000000000000000000000000000000600052603260045260246000fd5b6004111561057b57565b7f4e487b7100000000000000000000000000000000000000000000000000000000600052602160045260246000fd5b35600481101561000e5790565b356105c181610344565b90565b60016105cf826105aa565b6105d881610571565b0361061357806105ed602061061193016105b7565b906105fa604082016105b7565b60a0610608606084016105b7565b9201359261071d565b565b600261061e826105aa565b61062781610571565b036106a15760a08101356001810361066e57508061064a602061061193016105b7565b90610657604082016105b7565b6080610665606084016105b7565b92013592610841565b6040517f69f958270000000000000000000000000000000000000000000000000000000081526004810191909152602490fd5b60036106ac826105aa565b6106b581610571565b036106f357806106ca602061061193016105b7565b6106d6604083016105b7565b6106e2606084016105b7565b90608060a085013594013592610920565b60046040517f7932f1fc000000000000000000000000000000000000000000000000000000008152fd5b9092604051926000947f23b872dd00000000000000000000000000000000000000000000000000000000865280600452816024528260445260208660648180885af1803d15601f3d1160018a51141617163d1515811615610787575b505050505050604052606052565b80863b151516610779579087959691156107ac5786635f15d67287526020526024601cfd5b9591929395156107d1575063988919238594526020526040526060526080526084601cfd5b3d6107f4575b5063f486bc87845260205260405260605260805260a05260a4601cfd5b601f3d0160051c9060051c908060030291808211610828575b505060205a91011061081f57856107d7565b833d81803e3d90fd5b8080600392028380020360091c9203020101868061080d565b929091833b1561090e57604051926000947f23b872dd000000000000000000000000000000000000000000000000000000008652816004528260245283604452858060648180855af11561089b5750505050604052606052565b85853d6108c2575b5063f486bc879052602052604052606052608052600160a05260a4601cfd5b601f3d0160051c9060051c9080600302918082116108f5575b505060205a9101106108ed57856108a3565b3d81803e3d90fd5b8080600392028380020360091c920302010186806108db565b83635f15d6726000526020526024601cfd5b9392919091843b15610a0857604051936080519160a0519360c051956000987ff242432a000000000000000000000000000000000000000000000000000000008a528160045282602452836044528460645260a06084528960a452898060c48180855af11561099f57505050505060805260a05260c052604052606052565b89893d6109c4575b5063f486bc87905260205260405260605260805260a05260a4601cfd5b601f3d0160051c9060051c9080600302918082116109ef575b505060205a9101106108ed57866109a7565b8080600392028380020360091c920302010187806109dd565b84635f15d6726000526020526024601cfd5b90816020907f2eb2c2d600000000000000000000000000000000000000000000000000000000825260005b838110610a585750505050506080604052565b8435820194853590813b15610b8f5760a09182880192833560059181831b948b60c08097608094818301868501351490606085013514169201013584141615610b655789019a890160243760061b9360e0850160a452610104850194600086526040019060c437600080858982865af115610ad95750505050600101610a45565b869394503d610b1a575b507fafc445e20000000000000000000000000000000000000000000000000000000060005260045260645260849081510190526000fd5b84601f3d01821c911c90600381810292808311610b4e575b505050835a910110610b445784610ae3565b3d6000803e3d6000fd5b8080028380020360091c9203020101858080610b32565b7feba2084c0000000000000000000000000000000000000000000000000000000060005260046000fd5b5083635f15d672600052526024601cfdfea164736f6c6343000811000aa164736f6c6343000811000a60a080604052346100235733608052610bad90816100298239608051816103c50152f35b600080fdfe60806040526004361015610013575b600080fd5b6000803560e01c9081634ce34aa21461006657508063899e104c1461005d5780638df25d92146100545763c4e8fcb51461004c57600080fd5b61000e610362565b5061000e61027f565b5061000e6101ab565b346101465760207ffffffffffffffffffffffffffffffffffffffffffffffffffffffffffffffffc3601126101465760043567ffffffffffffffff8111610142576100b5903690600401610149565b9133815280602052604081205415610116575b8281106100fa576040517f4ce34aa2000000000000000000000000000000000000000000000000000000008152602090f35b8061011061010b6001938686610532565b6105c4565b016100c8565b807f93daadf2000000000000000000000000000000000000000000000000000000006024925233600452fd5b5080fd5b80fd5b9181601f8401121561000e5782359167ffffffffffffffff831161000e5760208085019460c0850201011161000e57565b9181601f8401121561000e5782359167ffffffffffffffff831161000e576020808501948460051b01011161000e57565b503461000e5760407ffffffffffffffffffffffffffffffffffffffffffffffffffffffffffffffffc36011261000e5767ffffffffffffffff60043581811161000e576101fc903690600401610149565b9160243590811161000e5761021590369060040161017a565b919092600033815280602052604081205415610116575b8181106102685761023d8486610a1a565b6040517f899e104c000000000000000000000000000000000000000000000000000000008152602090f35b8061027961010b6001938587610532565b0161022c565b503461000e5760207ffffffffffffffffffffffffffffffffffffffffffffffffffffffffffffffffc36011261000e5760043567ffffffffffffffff811161000e576102cf90369060040161017a565b33600052600060205260406000205415610316576102ec91610a1a565b60206040517f8df25d92000000000000000000000000000000000000000000000000000000008152f35b7f93daadf2000000000000000000000000000000000000000000000000000000006000523360045260246000fd5b73ffffffffffffffffffffffffffffffffffffffff81160361000e57565b503461000e5760407ffffffffffffffffffffffffffffffffffffffffffffffffffffffffffffffffc36011261000e5760043561039e81610344565b6024359081151580830361000e5773ffffffffffffffffffffffffffffffffffffffff90817f00000000000000000000000000000000000000000000000000000000000000001633036105085761041f6104188473ffffffffffffffffffffffffffffffffffffffff166000526000602052604060002090565b5460ff1690565b1515146104b657816104a6846104767fae63067d43ac07563b7eb8db6595635fc77f1578a2a5ea06ba91b63e2afa37e29573ffffffffffffffffffffffffffffffffffffffff166000526000602052604060002090565b9060ff7fffffffffffffffffffffffffffffffffffffffffffffffffffffffffffffff0083541691151516179055565b60405193151584521691602090a2005b506040517f924e341e00000000000000000000000000000000000000000000000000000000815273ffffffffffffffffffffffffffffffffffffffff9190911660048201529015156024820152604490fd5b60046040517f6d5769be000000000000000000000000000000000000000000000000000000008152fd5b91908110156105425760c0020190565b7f4e487b7100000000000000000000000000000000000000000000000000000000600052603260045260246000fd5b6004111561057b57565b7f4e487b7100000000000000000000000000000000000000000000000000000000600052602160045260246000fd5b35600481101561000e5790565b356105c181610344565b90565b60016105cf826105aa565b6105d881610571565b0361061357806105ed602061061193016105b7565b906105fa604082016105b7565b60a0610608606084016105b7565b9201359261071d565b565b600261061e826105aa565b61062781610571565b036106a15760a08101356001810361066e57508061064a602061061193016105b7565b90610657604082016105b7565b6080610665606084016105b7565b92013592610841565b6040517f69f958270000000000000000000000000000000000000000000000000000000081526004810191909152602490fd5b60036106ac826105aa565b6106b581610571565b036106f357806106ca602061061193016105b7565b6106d6604083016105b7565b6106e2606084016105b7565b90608060a085013594013592610920565b60046040517f7932f1fc000000000000000000000000000000000000000000000000000000008152fd5b9092604051926000947f23b872dd00000000000000000000000000000000000000000000000000000000865280600452816024528260445260208660648180885af1803d15601f3d1160018a51141617163d1515811615610787575b505050505050604052606052565b80863b151516610779579087959691156107ac5786635f15d67287526020526024601cfd5b9591929395156107d1575063988919238594526020526040526060526080526084601cfd5b3d6107f4575b5063f486bc87845260205260405260605260805260a05260a4601cfd5b601f3d0160051c9060051c908060030291808211610828575b505060205a91011061081f57856107d7565b833d81803e3d90fd5b8080600392028380020360091c9203020101868061080d565b929091833b1561090e57604051926000947f23b872dd000000000000000000000000000000000000000000000000000000008652816004528260245283604452858060648180855af11561089b5750505050604052606052565b85853d6108c2575b5063f486bc879052602052604052606052608052600160a05260a4601cfd5b601f3d0160051c9060051c9080600302918082116108f5575b505060205a9101106108ed57856108a3565b3d81803e3d90fd5b8080600392028380020360091c920302010186806108db565b83635f15d6726000526020526024601cfd5b9392919091843b15610a0857604051936080519160a0519360c051956000987ff242432a000000000000000000000000000000000000000000000000000000008a528160045282602452836044528460645260a06084528960a452898060c48180855af11561099f57505050505060805260a05260c052604052606052565b89893d6109c4575b5063f486bc87905260205260405260605260805260a05260a4601cfd5b601f3d0160051c9060051c9080600302918082116109ef575b505060205a9101106108ed57866109a7565b8080600392028380020360091c920302010187806109dd565b84635f15d6726000526020526024601cfd5b90816020907f2eb2c2d600000000000000000000000000000000000000000000000000000000825260005b838110610a585750505050506080604052565b8435820194853590813b15610b8f5760a09182880192833560059181831b948b60c08097608094818301868501351490606085013514169201013584141615610b655789019a890160243760061b9360e0850160a452610104850194600086526040019060c437600080858982865af115610ad95750505050600101610a45565b869394503d610b1a575b507fafc445e20000000000000000000000000000000000000000000000000000000060005260045260645260849081510190526000fd5b84601f3d01821c911c90600381810292808311610b4e575b505050835a910110610b445784610ae3565b3d6000803e3d6000fd5b8080028380020360091c9203020101858080610b32565b7feba2084c0000000000000000000000000000000000000000000000000000000060005260046000fd5b5083635f15d672600052526024601cfdfea164736f6c6343000811000a",
    "linkReferences": {}
  },
  "methodIdentifiers": {
    "acceptOwnership(address)": "51710e45",
    "cancelOwnershipTransfer(address)": "7b37e561",
    "createConduit(bytes32,address)": "794593bc",
    "getChannel(address,uint256)": "027cc764",
    "getChannelStatus(address,address)": "33bc8572",
    "getChannels(address)": "8b9e028b",
    "getConduit(bytes32)": "6e9bfd9f",
    "getConduitCodeHashes()": "0a96ad39",
    "getKey(address)": "93790f44",
    "getPotentialOwner(address)": "906c87cc",
    "getTotalChannels(address)": "4e3f9580",
    "ownerOf(address)": "14afd79e",
    "transferOwnership(address,address)": "6d435421",
    "updateChannel(address,address,bool)": "13ad9cab"
  },
  "id": 46
}